{
  "_format": "hh-sol-artifact-1",
  "contractName": "PropertyRegistry",
  "sourceName": "contracts/PropertyRegistry.sol",
  "abi": [
    {
      "inputs": [],
      "stateMutability": "nonpayable",
      "type": "constructor"
    },
    {
      "anonymous": false,
      "inputs": [
        {
          "indexed": true,
          "internalType": "uint256",
          "name": "transferId",
          "type": "uint256"
        },
        {
          "indexed": true,
          "internalType": "address",
          "name": "broker",
          "type": "address"
        }
      ],
      "name": "BrokerVerified",
      "type": "event"
    },
    {
      "anonymous": false,
      "inputs": [
        {
          "indexed": true,
          "internalType": "uint256",
          "name": "transferId",
          "type": "uint256"
        }
      ],
      "name": "BuyerAccepted",
      "type": "event"
    },
    {
      "anonymous": false,
      "inputs": [
        {
          "indexed": true,
          "internalType": "uint256",
          "name": "transferId",
          "type": "uint256"
        }
      ],
      "name": "MunicipalApproved",
      "type": "event"
    },
    {
      "anonymous": false,
      "inputs": [
        {
          "indexed": true,
          "internalType": "uint256",
          "name": "propertyId",
          "type": "uint256"
        },
        {
          "indexed": true,
          "internalType": "address",
          "name": "owner",
          "type": "address"
        },
        {
          "indexed": false,
          "internalType": "string",
          "name": "propertyAddress",
          "type": "string"
        },
        {
          "indexed": false,
          "internalType": "string",
          "name": "ipfsHash",
          "type": "string"
        }
      ],
      "name": "PropertyRegistered",
      "type": "event"
    },
    {
      "anonymous": false,
      "inputs": [
        {
          "indexed": true,
          "internalType": "uint256",
          "name": "transferId",
          "type": "uint256"
        }
      ],
      "name": "RegistrarVerified",
      "type": "event"
    },
    {
      "anonymous": false,
      "inputs": [
        {
          "indexed": true,
          "internalType": "address",
          "name": "user",
          "type": "address"
        },
        {
          "indexed": false,
          "internalType": "enum PropertyRegistry.UserRole",
          "name": "role",
          "type": "uint8"
        }
      ],
      "name": "RoleAssigned",
      "type": "event"
    },
    {
      "anonymous": false,
      "inputs": [
        {
          "indexed": true,
          "internalType": "uint256",
          "name": "transferId",
          "type": "uint256"
        }
      ],
      "name": "TransferCancelled",
      "type": "event"
    },
    {
      "anonymous": false,
      "inputs": [
        {
          "indexed": true,
          "internalType": "uint256",
          "name": "transferId",
          "type": "uint256"
        },
        {
          "indexed": true,
          "internalType": "uint256",
          "name": "propertyId",
          "type": "uint256"
        },
        {
          "indexed": false,
          "internalType": "address",
          "name": "newOwner",
          "type": "address"
        }
      ],
      "name": "TransferCompleted",
      "type": "event"
    },
    {
      "anonymous": false,
      "inputs": [
        {
          "indexed": true,
          "internalType": "uint256",
          "name": "transferId",
          "type": "uint256"
        },
        {
          "indexed": true,
          "internalType": "uint256",
          "name": "propertyId",
          "type": "uint256"
        },
        {
          "indexed": true,
          "internalType": "address",
          "name": "seller",
          "type": "address"
        },
        {
          "indexed": false,
          "internalType": "address",
          "name": "buyer",
          "type": "address"
        }
      ],
      "name": "TransferInitiated",
      "type": "event"
    },
    {
      "anonymous": false,
      "inputs": [
        {
          "indexed": true,
          "internalType": "uint256",
          "name": "transferId",
          "type": "uint256"
        },
        {
          "indexed": true,
          "internalType": "address",
          "name": "rejectedBy",
          "type": "address"
        },
        {
          "indexed": false,
          "internalType": "string",
          "name": "reason",
          "type": "string"
        }
      ],
      "name": "TransferRejected",
      "type": "event"
    },
    {
      "inputs": [],
      "name": "admin",
      "outputs": [
        {
          "internalType": "address",
          "name": "",
          "type": "address"
        }
      ],
      "stateMutability": "view",
      "type": "function"
    },
    {
      "inputs": [
        {
          "internalType": "address",
          "name": "_user",
          "type": "address"
        },
        {
          "internalType": "enum PropertyRegistry.UserRole",
          "name": "_role",
          "type": "uint8"
        }
      ],
      "name": "assignRole",
      "outputs": [],
      "stateMutability": "nonpayable",
      "type": "function"
    },
    {
      "inputs": [
        {
          "internalType": "uint256",
          "name": "_transferId",
          "type": "uint256"
        },
        {
          "internalType": "string",
          "name": "_reason",
          "type": "string"
        }
      ],
      "name": "brokerReject",
      "outputs": [],
      "stateMutability": "nonpayable",
      "type": "function"
    },
    {
      "inputs": [
        {
          "internalType": "uint256",
          "name": "_transferId",
          "type": "uint256"
        }
      ],
      "name": "brokerVerify",
      "outputs": [],
      "stateMutability": "nonpayable",
      "type": "function"
    },
    {
      "inputs": [
        {
          "internalType": "uint256",
          "name": "_transferId",
          "type": "uint256"
        },
        {
          "internalType": "string",
          "name": "_buyerDocumentsHash",
          "type": "string"
        }
      ],
      "name": "buyerAccept",
      "outputs": [],
      "stateMutability": "payable",
      "type": "function"
    },
    {
      "inputs": [
        {
          "internalType": "uint256",
          "name": "_transferId",
          "type": "uint256"
        }
      ],
      "name": "cancelTransfer",
      "outputs": [],
      "stateMutability": "nonpayable",
      "type": "function"
    },
    {
      "inputs": [
        {
          "internalType": "uint256",
          "name": "_propertyId",
          "type": "uint256"
        }
      ],
      "name": "getOwnershipHistory",
      "outputs": [
        {
          "internalType": "address[]",
          "name": "owners",
          "type": "address[]"
        },
        {
          "internalType": "uint256[]",
          "name": "transferIds",
          "type": "uint256[]"
        },
        {
          "internalType": "uint256[]",
          "name": "timestamps",
          "type": "uint256[]"
        },
        {
          "internalType": "string[]",
          "name": "ipfsHashes",
          "type": "string[]"
        }
      ],
      "stateMutability": "view",
      "type": "function"
    },
    {
      "inputs": [
        {
          "internalType": "uint256",
          "name": "_propertyId",
          "type": "uint256"
        }
      ],
      "name": "getProperty",
      "outputs": [
        {
          "internalType": "uint256",
          "name": "propertyId",
          "type": "uint256"
        },
        {
          "internalType": "address",
          "name": "currentOwner",
          "type": "address"
        },
        {
          "internalType": "string",
          "name": "propertyAddress",
          "type": "string"
        },
        {
          "internalType": "string",
          "name": "propertyType",
          "type": "string"
        },
        {
          "internalType": "uint256",
          "name": "area",
          "type": "uint256"
        },
        {
          "internalType": "string",
          "name": "ipfsHash",
          "type": "string"
        },
        {
          "internalType": "uint256",
          "name": "registrationDate",
          "type": "uint256"
        },
        {
          "internalType": "bool",
          "name": "isActive",
          "type": "bool"
        }
      ],
      "stateMutability": "view",
      "type": "function"
    },
    {
      "inputs": [
        {
          "internalType": "uint256",
          "name": "_transferId",
          "type": "uint256"
        }
      ],
      "name": "getTransferRequest",
      "outputs": [
        {
          "components": [
            {
              "internalType": "uint256",
              "name": "transferId",
              "type": "uint256"
            },
            {
              "internalType": "uint256",
              "name": "propertyId",
              "type": "uint256"
            },
            {
              "internalType": "address",
              "name": "seller",
              "type": "address"
            },
            {
              "internalType": "address",
              "name": "buyer",
              "type": "address"
            },
            {
              "internalType": "uint256",
              "name": "price",
              "type": "uint256"
            },
            {
              "internalType": "string",
              "name": "documentsHash",
              "type": "string"
            },
            {
              "internalType": "string",
              "name": "buyerDocumentsHash",
              "type": "string"
            },
            {
              "internalType": "enum PropertyRegistry.TransferStatus",
              "name": "status",
              "type": "uint8"
            },
            {
              "internalType": "address",
              "name": "broker",
              "type": "address"
            },
            {
              "internalType": "bool",
              "name": "brokerVerified",
              "type": "bool"
            },
            {
              "internalType": "bool",
              "name": "registrarVerified",
              "type": "bool"
            },
            {
              "internalType": "bool",
              "name": "municipalApproved",
              "type": "bool"
            },
            {
              "internalType": "bool",
              "name": "buyerAccepted",
              "type": "bool"
            },
            {
              "internalType": "string",
              "name": "rejectionReason",
              "type": "string"
            },
            {
              "internalType": "address",
              "name": "rejectedBy",
              "type": "address"
            },
            {
              "internalType": "uint256",
              "name": "createdAt",
              "type": "uint256"
            },
            {
              "internalType": "uint256",
              "name": "completedAt",
              "type": "uint256"
            }
          ],
          "internalType": "struct PropertyRegistry.TransferRequest",
          "name": "",
          "type": "tuple"
        }
      ],
      "stateMutability": "view",
      "type": "function"
    },
    {
      "inputs": [
        {
          "internalType": "address",
          "name": "_user",
          "type": "address"
        }
      ],
      "name": "getUserProperties",
      "outputs": [
        {
          "internalType": "uint256[]",
          "name": "",
          "type": "uint256[]"
        }
      ],
      "stateMutability": "view",
      "type": "function"
    },
    {
      "inputs": [
        {
          "internalType": "uint256",
          "name": "_propertyId",
          "type": "uint256"
        },
        {
          "internalType": "address",
          "name": "_buyer",
          "type": "address"
        },
        {
          "internalType": "uint256",
          "name": "_price",
          "type": "uint256"
        },
        {
          "internalType": "address",
          "name": "_broker",
          "type": "address"
        },
        {
          "internalType": "string",
          "name": "_documentsHash",
          "type": "string"
        }
      ],
      "name": "initiateTransfer",
      "outputs": [
        {
          "internalType": "uint256",
          "name": "",
          "type": "uint256"
        }
      ],
      "stateMutability": "nonpayable",
      "type": "function"
    },
    {
      "inputs": [
        {
          "internalType": "uint256",
          "name": "_transferId",
          "type": "uint256"
        }
      ],
      "name": "municipalApprove",
      "outputs": [],
      "stateMutability": "nonpayable",
      "type": "function"
    },
    {
      "inputs": [
        {
          "internalType": "uint256",
          "name": "_transferId",
          "type": "uint256"
        },
        {
          "internalType": "string",
          "name": "_reason",
          "type": "string"
        }
      ],
      "name": "municipalReject",
      "outputs": [],
      "stateMutability": "nonpayable",
      "type": "function"
    },
    {
      "inputs": [
        {
          "internalType": "uint256",
          "name": "",
          "type": "uint256"
        },
        {
          "internalType": "uint256",
          "name": "",
          "type": "uint256"
        }
      ],
      "name": "ownershipHistory",
      "outputs": [
        {
          "internalType": "address",
          "name": "owner",
          "type": "address"
        },
        {
          "internalType": "uint256",
          "name": "transferId",
          "type": "uint256"
        },
        {
          "internalType": "uint256",
          "name": "timestamp",
          "type": "uint256"
        },
        {
          "internalType": "string",
          "name": "ipfsHash",
          "type": "string"
        }
      ],
      "stateMutability": "view",
      "type": "function"
    },
    {
      "inputs": [
        {
          "internalType": "uint256",
          "name": "",
          "type": "uint256"
        }
      ],
      "name": "properties",
      "outputs": [
        {
          "internalType": "uint256",
          "name": "propertyId",
          "type": "uint256"
        },
        {
          "internalType": "address",
          "name": "currentOwner",
          "type": "address"
        },
        {
          "internalType": "string",
          "name": "propertyAddress",
          "type": "string"
        },
        {
          "internalType": "string",
          "name": "propertyType",
          "type": "string"
        },
        {
          "internalType": "uint256",
          "name": "area",
          "type": "uint256"
        },
        {
          "internalType": "string",
          "name": "ipfsHash",
          "type": "string"
        },
        {
          "internalType": "uint256",
          "name": "registrationDate",
          "type": "uint256"
        },
        {
          "internalType": "bool",
          "name": "isActive",
          "type": "bool"
        }
      ],
      "stateMutability": "view",
      "type": "function"
    },
    {
      "inputs": [],
      "name": "propertyCounter",
      "outputs": [
        {
          "internalType": "uint256",
          "name": "",
          "type": "uint256"
        }
      ],
      "stateMutability": "view",
      "type": "function"
    },
    {
      "inputs": [
        {
          "internalType": "address",
          "name": "_owner",
          "type": "address"
        },
        {
          "internalType": "string",
          "name": "_propertyAddress",
          "type": "string"
        },
        {
          "internalType": "string",
          "name": "_propertyType",
          "type": "string"
        },
        {
          "internalType": "uint256",
          "name": "_area",
          "type": "uint256"
        },
        {
          "internalType": "string",
          "name": "_ipfsHash",
          "type": "string"
        }
      ],
      "name": "registerProperty",
      "outputs": [
        {
          "internalType": "uint256",
          "name": "",
          "type": "uint256"
        }
      ],
      "stateMutability": "nonpayable",
      "type": "function"
    },
    {
      "inputs": [
        {
          "internalType": "uint256",
          "name": "_transferId",
          "type": "uint256"
        },
        {
          "internalType": "string",
          "name": "_reason",
          "type": "string"
        }
      ],
      "name": "registrarReject",
      "outputs": [],
      "stateMutability": "nonpayable",
      "type": "function"
    },
    {
      "inputs": [
        {
          "internalType": "uint256",
          "name": "_transferId",
          "type": "uint256"
        }
      ],
      "name": "registrarVerify",
      "outputs": [],
      "stateMutability": "nonpayable",
      "type": "function"
    },
    {
      "inputs": [],
      "name": "transferCounter",
      "outputs": [
        {
          "internalType": "uint256",
          "name": "",
          "type": "uint256"
        }
      ],
      "stateMutability": "view",
      "type": "function"
    },
    {
      "inputs": [
        {
          "internalType": "uint256",
          "name": "",
          "type": "uint256"
        }
      ],
      "name": "transferRequests",
      "outputs": [
        {
          "internalType": "uint256",
          "name": "transferId",
          "type": "uint256"
        },
        {
          "internalType": "uint256",
          "name": "propertyId",
          "type": "uint256"
        },
        {
          "internalType": "address",
          "name": "seller",
          "type": "address"
        },
        {
          "internalType": "address",
          "name": "buyer",
          "type": "address"
        },
        {
          "internalType": "uint256",
          "name": "price",
          "type": "uint256"
        },
        {
          "internalType": "string",
          "name": "documentsHash",
          "type": "string"
        },
        {
          "internalType": "string",
          "name": "buyerDocumentsHash",
          "type": "string"
        },
        {
          "internalType": "enum PropertyRegistry.TransferStatus",
          "name": "status",
          "type": "uint8"
        },
        {
          "internalType": "address",
          "name": "broker",
          "type": "address"
        },
        {
          "internalType": "bool",
          "name": "brokerVerified",
          "type": "bool"
        },
        {
          "internalType": "bool",
          "name": "registrarVerified",
          "type": "bool"
        },
        {
          "internalType": "bool",
          "name": "municipalApproved",
          "type": "bool"
        },
        {
          "internalType": "bool",
          "name": "buyerAccepted",
          "type": "bool"
        },
        {
          "internalType": "string",
          "name": "rejectionReason",
          "type": "string"
        },
        {
          "internalType": "address",
          "name": "rejectedBy",
          "type": "address"
        },
        {
          "internalType": "uint256",
          "name": "createdAt",
          "type": "uint256"
        },
        {
          "internalType": "uint256",
          "name": "completedAt",
          "type": "uint256"
        }
      ],
      "stateMutability": "view",
      "type": "function"
    },
    {
      "inputs": [
        {
          "internalType": "address",
          "name": "",
          "type": "address"
        },
        {
          "internalType": "uint256",
          "name": "",
          "type": "uint256"
        }
      ],
      "name": "userProperties",
      "outputs": [
        {
          "internalType": "uint256",
          "name": "",
          "type": "uint256"
        }
      ],
      "stateMutability": "view",
      "type": "function"
    },
    {
      "inputs": [
        {
          "internalType": "address",
          "name": "",
          "type": "address"
        }
      ],
      "name": "userRoles",
      "outputs": [
        {
          "internalType": "enum PropertyRegistry.UserRole",
          "name": "",
          "type": "uint8"
        }
      ],
      "stateMutability": "view",
      "type": "function"
    }
  ],
  "bytecode": "0x6080806040523461003257600780546001600160a01b031916331790556000600581905560065561348090816100388239f35b600080fdfe6080604052600436101561001257600080fd5b60003560e01c806303486c4014612aed578063060a3e6114612a6257806325e751ea146128d157806332665ffb1461280c5780633cf8ddf2146127ee578063409b6dab1461259c578063428b609c146123465780634fc30b84146121c657806359caecb514612076578063630a195b14611f5657806374d5e10014611f14578063774e859d146118a15780638b4e186f1461172357806397fb9460146114bc57806399807e4c146111f4578063c9cf2adc14611174578063d090e47e14611156578063d198d0b01461099c578063e2271c9f14610944578063f1dbaccb146106c1578063f7b1080814610644578063f851a440146106165763fa39987d1461011957600080fd5b61012236612f01565b816000526002916020838152600760ff81604060002001541660088110156104105760051415806105f1575b806105cd575b61015d90613175565b8260005284825260406000209460018060a01b039160039583878901541633036105905781880197885460ff81166008811015610410578903610541578251156104fc57600482015434036104ab5760ff60c01b1916600160c01b17895581516006909101916001600160401b0382116104955781906101e7826101e18654612c36565b86612fb5565b8790601f831160011461043157600092610426575b50508160011b91600019908a1b1c19161790555b60ff1996600488825416179055604051857f71d37ad01321b5387f04cbd4f2b2b2a8139cedea91d95bb854117fd2318f2daa600080a28560005282855260406000209182019060ff8254166008811015610410576004036103ce575060018201549687600052600186526000808080886040822098880154166004880154905af13d156103c9573d6102a181612e9f565b906102af6040519283612cde565b81526000883d92013e5b15610384577fef00fa26b8b9b4e179714c49dfd3e35d3ec9531e841f3e66fd0466619c969c3b969798816103116005938601968888541660018201906001600160601b0360a01b8254161790558480880191016132aa565b8a6000528752610354604060002087875416906040519161033183612c8c565b82528b8a83015242604083015261034a60068801612cff565b606083015261303e565b858554166000526004875261036d8a6040600020613009565b825416179055600b429101555416604051908152a3005b60405162461bcd60e51b815260048101879052601d60248201527f455448207472616e7366657220746f2073656c6c6572206661696c65640000006044820152606490fd5b6102b9565b62461bcd60e51b815260048101869052601960248201527f427579657220616363657074616e6365207265717569726564000000000000006044820152606490fd5b634e487b7160e01b600052602160045260246000fd5b0151905038806101fc565b60008581528981209350601f198516905b8a82821061047f575050908460019594939210610467575b505050811b019055610210565b0151600019838c1b60f8161c1916905538808061045a565b6001859682939686015181550195019301610442565b634e487b7160e01b600052604160045260246000fd5b60405162461bcd60e51b8152600481018890526024808201527f45544820616d6f756e74206d757374206d61746368207472616e7366657220706044820152637269636560e01b6064820152608490fd5b60405162461bcd60e51b815260048101889052601d60248201527f427579657220646f63756d656e747320686173682072657175697265640000006044820152606490fd5b60405162461bcd60e51b815260048101889052602160248201527f4d756e69636970616c20617070726f76616c20726571756972656420666972736044820152601d60fa1b6064820152608490fd5b60405162461bcd60e51b815260048101869052601560248201527413db9b1e48189d5e595c8818d85b881858d8d95c1d605a1b6044820152606490fd5b508260005284825260ff816040600020015416600881101561041057811415610154565b508260005284825260ff8160406000200154166008811015610410576006141561014e565b3461063f57600036600319011261063f576007546040516001600160a01b039091168152602090f35b600080fd5b3461063f57602036600319011261063f576004356000526001602052604060002080546106bd60018060a01b036001840154169261068460028201612cff565b9061069160038201612cff565b60048201546106a260058401612cff565b9160ff60076006860154950154169460405198899889612e3c565b0390f35b3461063f5760208060031936011261063f5760043560005260039081815260406000208054906106f0826133cd565b936106fe6040519586612cde565b8285526000918252838220908486015b8484106108f7578587805190610723826133cd565b916107316040519384612cde565b80835261073d816133cd565b90848401601f19809301368237610753826133e4565b61075c836133e4565b92610766816133cd565b956107746040519788612cde565b81875285610781836133cd565b0160005b8181106108e857505060005b82811061085c57505050604051956080870190608088525180915260a08701929060005b81811061083f57505050816107d491876107e295940389890152612e08565b908582036040870152612e08565b93838503606085015282519081865280860181808460051b8901019501936000975b8489106108115787870388f35b909192939495848061082d838686600196030188528a51612da5565b98019401980197919094939294610804565b82516001600160a01b0316855293890193918901916001016107b5565b9598956108e0906001600160a01b036108758285613416565b515116610882828c613416565b528761088e8285613416565b51015161089b8287613416565b5260406108a88285613416565b5101516108b58289613416565b5260606108c28285613416565b5101516108cf828b613416565b526108da818a613416565b50612f90565b989598610791565b60608982018c01528a01610785565b60048660019260405161090981612c8c565b848060a01b038754168152848701548382015260028701546040820152610931868801612cff565b606082015281520193019301929161070e565b3461063f57604036600319011261063f5761095d612df2565b6001600160a01b031660009081526004602052604090208054602435919082101561063f5760209161098e91612f78565b90546040519160031b1c8152f35b3461063f5760a036600319011261063f57602480356001600160a01b038116810361063f57606480356001600160a01b038116810361063f576084356001600160401b03811161063f576109f4903690600401612eba565b91600435600052600160205260ff600760406000200154161561111557600435600052600160205260018060a01b036001604060002001541633036110d45733600052600060205260ff604060002054166006811015610e6b5760011480156110b0575b1561106f576001600160a01b03841615611036576001600160a01b0384163314610ffc5760443515610fbb57825115610f7a5750610a97600654612f90565b908160065560405192610aa984612ca7565b828452600435602085015233604085015260018060a01b0385166060850152604435608085015260a0840152604051610ae181612cc3565b6000815260c0840152600060e084015260018060a01b03166101008301526000610120830152600061014083015260006101608301526000610180830152604051610b2b81612cc3565b600081526101a083015260006101c0830152426101e083015260006102008301526000526002602052604060002090805182556020810151600183015560018060a01b036040820151166001600160601b0360a01b6002840154161760028301556003820160018060a01b036060830151166001600160601b0360a01b8254161790556080810151600483015560a08101518051906001600160401b038211610e56578190610bea82610be16005880154612c36565b60058801612fb5565b602090601f8311600114610f0857600092610efd575b50508160011b916000199060031b1c19161760058301555b60c08101518051906001600160401b038211610e56578190610c4a82610c416006880154612c36565b60068801612fb5565b602090601f8311600114610e8b57600092610e80575b50508160011b916000199060031b1c19161760068301555b6007820160e08201516008811015610e6b578154610100600160a81b0361010085015160081b1660ff60a81b610120860151151560a81b1660ff60b01b610140870151151560b01b169160ff60b81b610160880151151560b81b169360ff8060c01b6101808a0151151560c01b1696169066ffffffffffffff60c81b1617171717171790556101a081015180516001600160401b038111610e5657602095506008840191610d3082610d2a8554612c36565b85612fb5565b8690601f8311600114610de95791806102009492600b9694600092610dde575b50508160011b916000199060031b1c19161790555b6101c08101516009850180546001600160a01b0319166001600160a01b039283161790556101e0820151600a86015591015191909201556006546040519290911682529033906004359083907f1c2efbc9fb1caf45833e3cf6ce322b04cd616c58a60231fee8ce75354d74575d908690a4604051908152f35b015190508980610d50565b908360005287600020916000601f198516905b818110610e3f5750926001928592600b9896610200989610610e26575b505050811b019055610d65565b015160001960f88460031b161c19169055898080610e19565b92938a600181928786015181550195019301610dfc565b85634e487b7160e01b60005260416004526000fd5b85634e487b7160e01b60005260216004526000fd5b015190508680610c60565b9250600685016000526020600020906000935b601f1984168510610ee2576001945083601f19811610610ec9575b505050811b016006830155610c78565b015160001960f88460031b161c19169055868080610eb9565b81810151835560209485019460019093019290910190610e9e565b015190508680610c00565b9250600585016000526020600020906000935b601f1984168510610f5f576001945083601f19811610610f46575b505050811b016005830155610c18565b015160001960f88460031b161c19169055868080610f36565b81810151835560209485019460019093019290910190610f1b565b60405162461bcd60e51b8152602060048201526017818701527f446f63756d656e747320686173682072657175697265640000000000000000006044820152fd5b60405162461bcd60e51b815260206004820152601f818701527f5072696365206d7573742062652067726561746572207468616e207a65726f006044820152fd5b60405162461bcd60e51b81526020600482015260168187015275213abcb2b91031b0b73737ba1031329039b2b63632b960511b6044820152fd5b60405162461bcd60e51b81526020600482015260158187015274496e76616c6964206275796572206164647265737360581b6044820152fd5b60405162461bcd60e51b8152602060048201819052818701527f4d7573742062652073656c6c6572206f722070726f7065727479206f776e65726044820152fd5b5060043560005260016020523360018060a01b036001604060002001541614610a58565b60405162461bcd60e51b8152602060048201819052818701527f4f6e6c79206f776e65722063616e20696e697469617465207472616e736665726044820152fd5b60405162461bcd60e51b8152602060048201526017818701527f50726f706572747920646f6573206e6f742065786973740000000000000000006044820152fd5b3461063f57600036600319011261063f576020600554604051908152f35b3461063f57604036600319011261063f576024356004356000526003602052604060002090815481101561063f576111ab91612f46565b5060018060a01b038154166106bd6001830154926111d0600360028301549201612cff565b90604051948594855260208501526040840152608060608401526080830190612da5565b3461063f57602036600319011261063f57600061020060405161121681612ca7565b828152826020820152826040820152826060820152826080820152606060a0820152606060c08201528260e0820152826101008201528261012082015282610140820152826101608201528261018082015260606101a0820152826101c0820152826101e08201520152600435600052600260205260406000206040519061129d82612ca7565b805482526001810154602083015260028101546001600160a01b0390811660408401526003820154166060830152600481015460808301526112e160058201612cff565b60a08301526112f260068201612cff565b60c0830152600781015490600860ff831610156104105760ff8281600b941660e086015260018060a01b038160081c16610100860152818160a81c161515610120860152818160b01c161515610140860152818160b81c16151561016086015260c01c16151561018084015261136a60088201612cff565b6101a084015260018060a01b036009820154166101c0840152600a8101546101e08401520154610200820152604051809160208252805160208301526020810151604083015260018060a01b03604082015116606083015260018060a01b036060820151166080830152608081015160a083015261020061148f61141861140260a085015161022060c0880152610240870190612da5565b60c0850151868203601f190160e0880152612da5565b61142b60e0850151610100870190612de5565b60018060a01b036101008501511661012086015261012084015115156101408601526101408401511515610160860152610160840151151561018086015261018084015115156101a08601526101a0840151601f19868303016101c0870152612da5565b6101c08301516001600160a01b03166101e085810191909152830151828501529101516102208301520390f35b3461063f576114ca36612f01565b9080600052600291602092808452600760ff81604060002001541660088110156104105760051415806116fe575b806116da575b61150790613175565b336000526000855260ff60406000205416600681101561041057600361152d911461325e565b8360005281855260ff8160406000200154169060088210156104105760018092036116975760089061156185511515613381565b856000528387526040600020908082019060ff1982541617905501908351906001600160401b0382116104955761159c82610d2a8554612c36565b86601f831160011461161e5791808060008051602061342b83398151915297959361160e9795600093611613575b501b916000199060031b1c19161790555b8460005285526009604060002001336001600160601b0360a01b8254161790556040519182918683523396830190612da5565b0390a3005b87015192508b6115ca565b601f9291921982169084600052886000209160005b8a82821061168357505091839160008051602061342b83398151915298969461160e9896941061166a575b5050811b0190556115db565b86015160001960f88460031b161c19169055898061165e565b898401518555938601939283019201611633565b6064866040519062461bcd60e51b825280600483015260248201527f5472616e73666572206d7573742062652062726f6b65722076657269666965646044820152fd5b508360005281855260ff8160406000200154166008811015610410578114156114fe565b508360005281855260ff816040600020015416600881101561041057600614156114f8565b3461063f5760208060031936011261063f576004359081600052600280825260079160ff836040600020015416600881101561041057600514158061187c575b80611858575b61177290613175565b336000526000815260ff604060002054166006811015610410576004611798911461325e565b8360005281815260ff83604060002001541660088110156104105782036118065760008481529190526040812091909101805460ff60ff60b81b0119166003600160b81b011790557f62558f20f24a8f2d8f269eaffcf79c0fc2f3ab96d93773c738b09689ffacf4629080a2005b6084906040519062461bcd60e51b82526004820152602560248201527f52656769737472617220766572696669636174696f6e20726571756972656420604482015264199a5c9cdd60da1b6064820152fd5b508360005281815260ff836040600020015416600881101561041057831415611769565b508360005281815260ff83604060002001541660088110156104105760061415611763565b3461063f5760a036600319011261063f576118ba612df2565b6024356001600160401b03811161063f576118d9903690600401612eba565b9060449182356001600160401b03811161063f576118fb903690600401612eba565b926084356001600160401b03811161063f5761191b903690600401612eba565b916001600160a01b039184831615611ed857815115611e9457835115611e5b5733600052600060205260ff60406000205416600681101561041057600303611d60575b5061196a600554612f90565b94856005556040519061197c82612c70565b868252602082019684871688526040830191848352606084015260643560808401528560a08401524260c0840152600160e084015260005260016020526040600020968251885584600189019151166001600160601b0360a01b825416179055518051906001600160401b038211610495578190611a0a82611a0160028c0154612c36565b60028c01612fb5565b602090601f8311600114611cee57600092611ce3575b50508160011b916000199060031b1c19161760028701555b606081015180516001600160401b03811161049557806003890192611a61826101e18654612c36565b602090601f8311600114611c7d57600092611c72575b50508160011b916000199060031b1c19161790555b6080810151600487015560a08101519586516001600160401b03811161049557602097611ac982611ac06005860154612c36565b60058601612fb5565b8890601f8311600114611bd9577f31182f6909026c6beb17a5f7d86ce8dfd6c60aeb1d2df4ef2250e326b10a1ae6959383611bb4969460e094600794600092611bce575b50508160011b916000199060031b1c19161760058201555b60c0840151600682015501910151151560ff8019835416911617905583861660005260048752611b5c604060002060055490613009565b60055460005260038752611b97604060002060405190611b7b82612c8c565b868916825260008a83015242604083015287606083015261303e565b611bc3600554968795604051948594604086526040860190612da5565b918483038b8601521696612da5565b0390a3604051908152f35b015190508d80611b0d565b9060058401600052896000209160005b601f1985168110611c5b57509360018460e0946007947f31182f6909026c6beb17a5f7d86ce8dfd6c60aeb1d2df4ef2250e326b10a1ae69a98611bb49a98601f19811610611c42575b505050811b016005820155611b25565b015160001960f88460031b161c191690558d8080611c32565b91928b600181928685015181550194019201611be9565b015190508980611a77565b6000858152602081209350601f198516905b818110611ccb5750908460019594939210611cb2575b505050811b019055611a8c565b015160001960f88460031b161c19169055898080611ca5565b92936020600181928786015181550195019301611c8f565b015190508880611a20565b9250600289016000526020600020906000935b601f1984168510611d45576001945083601f19811610611d2c575b505050811b016002870155611a38565b015160001960f88460031b161c19169055888080611d1c565b81810151835560209485019460019093019290910190611d01565b33838616148015611dfb5733600052600060205260ff60406000205416600681101561041057600114908115611df3575b5061195e576084907f4f6e6c7920526567697374726172206f722053656c6c65722063616e207265676040519162461bcd60e51b835260206004840152603060248401528201526f69737465722070726f7065727469657360801b6064820152fd5b905087611d91565b60405162461bcd60e51b815260206004820152603360248201527f53656c6c6572732063616e206f6e6c792072656769737465722070726f70657281840152727469657320666f72207468656d73656c76657360681b6064820152608490fd5b6064907112541194c81a185cda081c995c5d5a5c995960721b6040519162461bcd60e51b83526020600484015260126024840152820152fd5b6064907f50726f70657274792061646472657373207265717569726564000000000000006040519162461bcd60e51b83526020600484015260196024840152820152fd5b60649074496e76616c6964206f776e6572206164647265737360581b6040519162461bcd60e51b83526020600484015260156024840152820152fd5b3461063f57602036600319011261063f576001600160a01b03611f35612df2565b1660005260006020526106bd60ff6040600020541660405191829182612f33565b3461063f57604036600319011261063f57611f6f612df2565b60243590600682101561063f576007546001600160a01b039190821633036120265716908115611fea57611fe57f4ac36fa53f167ceb85964be512e01de2a3b8bdb9862f917da079deeeff689b3891836000526000602052604060002060ff1981541660ff831617905560405191829182612f33565b0390a2005b60405162461bcd60e51b8152602060048201526014602482015273496e76616c69642075736572206164647265737360601b6044820152606490fd5b60405162461bcd60e51b815260206004820152602260248201527f4f6e6c792061646d696e2063616e20706572666f726d2074686973206163746960448201526137b760f11b6064820152608490fd5b3461063f5760208060031936011261063f576004359081600052600280825260079160ff83604060002001541660088110156104105760051415806121a1575b8061217d575b6120c590613175565b600084815282825260409020820154336001600160a01b0391821614908115612170575b501561212c578360005252604060002001600660ff198254161790557f80325e888c1c82b732ed61a3aaa950ae32a233290f74a648d1a3339666450345600080a2005b6064906040519062461bcd60e51b82526004820152601f60248201527f4f6e6c792073656c6c6572206f722061646d696e2063616e2063616e63656c006044820152fd5b90508354163314856120e9565b508360005281815260ff8360406000200154166008811015610410578314156120bc565b508360005281815260ff836040600020015416600881101561041057600614156120b6565b3461063f5760208060031936011261063f5760043590816000526002815260079060ff8260406000200154166008811015610410576005141580612320575b806122fb575b61221490613175565b336000526000815260ff60406000205416600681101561041057600361223a911461325e565b826000526002815260ff8260406000200154166008811015610410576001036122ac57600083815260029091526040812091909101805460ff60ff60b01b0119166002600160b01b011790557f37f60cc16d16fec57dd946c2164ae68702768596659a780232abd888017c36a49080a2005b6084906040519062461bcd60e51b82526004820152602260248201527f42726f6b657220766572696669636174696f6e207265717569726564206669726044820152611cdd60f21b6064820152fd5b50826000526002815260ff82604060002001541660088110156104105782141561220b565b50826000526002815260ff82604060002001541660088110156104105760061415612205565b3461063f5761235436612f01565b9080600052600291602092808452600760ff8160406000200154166008811015610410576005141580612577575b80612553575b61239190613175565b336000526000855260ff6040600020541660068110156104105760046123b7911461325e565b8360005281855260ff8160406000200154166008811015610410578203612502576008906123e784511515613381565b846000528286526040600020908082019060ff198254161790550182516001600160401b03811161049557612426816124208454612c36565b84612fb5565b85601f82116001146124a357918161160e949260008051602061342b8339815191529694600091612498575b508160011b916000199060031b1c19161790558460005285526009604060002001336001600160601b0360a01b8254161790556040519182918683523396830190612da5565b905084015189612452565b601f1982169083600052876000209160005b898282106124ec5750509260008051602061342b8339815191529694926001928261160e98961061166a575050811b0190556115db565b600184958293958b0151815501940192016124b5565b60405162461bcd60e51b815260048101869052602360248201527f5472616e73666572206d757374206265207265676973747261722076657269666044820152621a595960ea1b6064820152608490fd5b508360005281855260ff816040600020015416600881101561041057811415612388565b508360005281855260ff81604060002001541660088110156104105760061415612382565b3461063f576125aa36612f01565b9080600052600291602092808452600760ff81604060002001541690600891828110156104105760051415806127ca575b806127a7575b6125ea90613175565b336000526000865260ff604060002054166006811015610410576005036127695760008581528387526040902081015461263090831c6001600160a01b031633146131d1565b8460005282865260ff81604060002001541682811015610410576126549015613213565b61266084511515613381565b846000528286526040600020908082019060ff198254161790550182516001600160401b03811161049557612699816124208454612c36565b85601f821160011461270a57918161160e949260008051602061342b833981519152969460009161249857508160011b916000199060031b1c19161790558460005285526009604060002001336001600160601b0360a01b8254161790556040519182918683523396830190612da5565b601f1982169083600052876000209160005b898282106127535750509260008051602061342b8339815191529694926001928261160e98961061166a575050811b0190556115db565b600184958293958b01518155019401920161271c565b60405162461bcd60e51b815260048101879052601660248201527513db9b1e48189c9bdad95c8818d85b881c995a9958dd60521b6044820152606490fd5b508460005282865260ff81604060002001541682811015610410578114156125e1565b508460005282865260ff8160406000200154168281101561041057600614156125db565b3461063f57600036600319011261063f576020600654604051908152f35b3461063f57602036600319011261063f57600435600052600160205260406000206040519061283a82612c70565b805482526106bd60018060a01b039283600184015416926020820193845261286460028201612cff565b946040830195865261287860038301612cff565b6060840190815260048301546080850190815261289760058501612cff565b928360a087015260ff60076006870154968760c08a01520154161515958660e0820152519751169751915190519160405198899889612e3c565b3461063f5760208060031936011261063f576004359081600052600280825260079160ff8360406000200154166008811015610410576005141580612a3d575b80612a19575b61292090613175565b336000526000815260ff604060002054166006811015610410576005036129dc576000848152828252604090208301546129679060081c6001600160a01b031633146131d1565b8360005281815260ff83604060002001541660088110156104105761298c9015613213565b60008481529190526040812091909101805460ff60ff60a81b0119166001600160a81b011790553391907fdf16953588ac43e67166d27981e91d675d4c9c534d93402c3d92547a86786f199080a3005b6064906040519062461bcd60e51b8252600482015260166024820152754f6e6c792062726f6b65722063616e2076657269667960501b6044820152fd5b508360005281815260ff836040600020015416600881101561041057831415612917565b508360005281815260ff83604060002001541660088110156104105760061415612911565b3461063f5760208060031936011261063f576001600160a01b03612a84612df2565b1660005260048152604060002090604051808383829554938481520190600052836000209260005b85828210612ad757505050612ac392500383612cde565b6106bd604051928284938452830190612e08565b8554845260019586019588955093019201612aac565b3461063f57602036600319011261063f57600435600052600260205260406000208054600182015491600160a01b60019003908160028201541690826003820154169260048201549060058301612b4390612cff565b612b4f60068501612cff565b600785015491612b6160088701612cff565b948460098801541698600a88015497600b0154986040519c8d9c8d5260208d015260408c015260608b015260808a01526102208060a08b01528901612ba591612da5565b88810360c08a0152612bb691612da5565b91612bc760e0890160ff8416612de5565b8160081c166101008801528060a81c60ff1615156101208801528060b01c60ff1615156101408801528060b81c60ff16151561016088015260c01c60ff1615156101808701528581036101a0870152612c1f91612da5565b926101c08501526101e08401526102008301520390f35b90600182811c92168015612c66575b6020831014612c5057565b634e487b7160e01b600052602260045260246000fd5b91607f1691612c45565b61010081019081106001600160401b0382111761049557604052565b608081019081106001600160401b0382111761049557604052565b61022081019081106001600160401b0382111761049557604052565b602081019081106001600160401b0382111761049557604052565b90601f801991011681019081106001600160401b0382111761049557604052565b9060405191826000825492612d1384612c36565b908184526001948581169081600014612d825750600114612d3f575b5050612d3d92500383612cde565b565b9093915060005260209081600020936000915b818310612d6a575050612d3d93508201013880612d2f565b85548884018501529485019487945091830191612d52565b915050612d3d94506020925060ff191682840152151560051b8201013880612d2f565b919082519283825260005b848110612dd1575050826000602080949584010152601f8019910116010190565b602081830181015184830182015201612db0565b9060088210156104105752565b600435906001600160a01b038216820361063f57565b90815180825260208080930193019160005b828110612e28575050505090565b835185529381019392810192600101612e1a565b969897949293612e71612e929560e09894612e7f948b5260018060a01b031660208b01526101008060408c01528a0190612da5565b9088820360608a0152612da5565b91608087015285820360a0870152612da5565b9460c08401521515910152565b6001600160401b03811161049557601f01601f191660200190565b81601f8201121561063f57803590612ed182612e9f565b92612edf6040519485612cde565b8284526020838301011161063f57816000926020809301838601378301015290565b90604060031983011261063f5760043591602435906001600160401b03821161063f57612f3091600401612eba565b90565b9190602083019260068210156104105752565b8054821015612f625760005260206000209060021b0190600090565b634e487b7160e01b600052603260045260246000fd5b8054821015612f625760005260206000200190600090565b6000198114612f9f5760010190565b634e487b7160e01b600052601160045260246000fd5b90601f8111612fc357505050565b600091825260208220906020601f850160051c83019410612fff575b601f0160051c01915b828110612ff457505050565b818155600101612fe8565b9092508290612fdf565b8054600160401b8110156104955761302691600182018155612f78565b819291549060031b91821b91600019901b1916179055565b8054600160401b8110156104955761305d906001928382018155612f46565b61315f57825181546001600160a01b0319166001600160a01b039190911617815560208084015183830155604084015160028301556060909301518051600390920193906001600160401b038311610495576130c3836130bd8754612c36565b87612fb5565b81601f84116001146130fc57509282939183926000946130f1575b50501b916000199060031b1c1916179055565b0151925038806130de565b919083601f1981168760005284600020946000905b88838310613145575050501061312c575b505050811b019055565b015160001960f88460031b161c19169055388080613122565b858701518855909601959485019487935090810190613111565b634e487b7160e01b600052600060045260246000fd5b1561317c57565b60405162461bcd60e51b815260206004820152602760248201527f5472616e7366657220616c726561647920636f6d706c65746564206f722063616044820152661b98d95b1b195960ca1b6064820152608490fd5b156131d857565b60405162461bcd60e51b81526020600482015260136024820152722ab730baba3437b934bd32b210313937b5b2b960691b6044820152606490fd5b1561321a57565b606460405162461bcd60e51b815260206004820152602060248201527f5472616e73666572206e6f7420696e20496e69746961746564207374617475736044820152fd5b1561326557565b60405162461bcd60e51b815260206004820152601d60248201527f496e73756666696369656e7420726f6c65207065726d697373696f6e730000006044820152606490fd5b9080821461337d576132bc8154612c36565b906001600160401b0382116104955781906132db826101e18654612c36565b600090601f831160011461331257600092613307575b50508160011b916000199060031b1c1916179055565b0154905038806132f1565b81526020808220858352818320935090601f1985169083905b82821061336457505090846001959493921061334b57505050811b019055565b015460001960f88460031b161c19169055388080613122565b849581929585015481556001809101960194019061332b565b5050565b1561338857565b60405162461bcd60e51b815260206004820152601960248201527f52656a656374696f6e20726561736f6e207265717569726564000000000000006044820152606490fd5b6001600160401b0381116104955760051b60200190565b906133ee826133cd565b6133fb6040519182612cde565b828152809261340c601f19916133cd565b0190602036910137565b8051821015612f625760209160051b01019056fe983dee05b0574d0bc3f63b6c60086c1e297360e910af8b34bcc1845147a278e8a26469706673582212205cbef70f288a2dbfe632d14c3bc85c1568ade95fa24abe7922ac2abf6abf03c264736f6c63430008130033",
  "linkReferences": {},
  "deployedLinkReferences": {}
}